:020000040800F2
:10000000E007002099010008B50B0008F30A00087A
:10001000B10B0008C10700088F1D00080000000098
:10002000000000000000000000000000491100086E
:100030007509000800000000011000086D14000898
:10004000B3010008B3010008B3010008B3010008C0
:10005000B3010008B3010008B3010008B3010008B0
:10006000B3010008B3010008B3010008B3010008A0
:10007000B3010008B3010008B3010008B301000890
:10008000B3010008B3010008B3010008B301000880
:10009000B3010008B3010008B3010008B301000870
:1000A000B3010008B3010008B3010008B301000860
:1000B000B3010008D1140008B3010008B30100081F
:1000C000B3010008B3010008B3010008B301000840
:1000D000B30100087D1B0008B3010008B30100084C
:1000E000B3010008B3010008B301000800F002F8F2
:1000F00000F042F80AA090E8000C82448344AAF180
:100100000107DA4501D100F037F8AFF2090EBAE87D
:100110000F0013F0010F18BFFB1A43F0010318473B
:10012000602C0000802C0000103A24BF78C878C1F1
:10013000FAD8520724BF30C830C144BF04680C60ED
:10014000704700000023002400250026103A28BF35
:1001500078C1FBD8520728BF30C148BF0B60704739
:10016000642900F04F80752900F04C800020704712
:100170001FB51FBD10B510BD00F0BDF91146FFF74A
:10018000F7FF01F00DFE00F0DBF903B4FFF7F2FF1B
:1001900003BC00F0E3F90000094880470948004724
:1001A000FEE7FEE7FEE7FEE7FEE7FEE7FEE7FEE727
:1001B000FEE7FEE704480549054A064B7047000084
:1001C00071140008ED000008E0010020E0070020A5
:1001D000E0030020E00300200FB41CB5084B06AA82
:1001E0007B4469460090059800F06DF904460020B4
:1001F000694600F07BF920461CBC5DF814FB00004A
:10020000090300002DE9F041064600241068752915
:10021000314616A510D0AFF30080002802DA404224
:1002200013A507E031688A0701D512A502E0490746
:1002300004D511A5012401E0AFF3008000210A22BA
:1002400006F1240709E0B0FBF2FCB0FBF2F302FB7D
:100250001C00303078541846491C0028F3D123463E
:100260002A463046BDE8F04100F0CFB8000000005B
:100270002D0000002B000000200000002DE9F05FA1
:10028000894604464FF0000ADFF874B1FB44C0F819
:1002900020A02046E1688847002874D0252806D091
:1002A000D4E901219047206A401C2062F1E7002632
:1002B0005F462046E16888472028054607DB312D48
:1002C00005D2781910F8200C08B10643F1E7B00701
:1002D00001D526F00406C4F81CA00027C4F818A015
:1002E0002A2D09D0284601F054FD38B304EB8708C5
:1002F000303DC8F8185019E059F8041B204604EBAB
:1003000087029161E1688847012F054618D1E069AD
:10031000002820DA26F020061DE0D8F8180000EBAF
:10032000800005EB40003038C8F818002046E1682E
:100330008847054601F02DFD0028EED1012F0AD097
:100340002E2D08D12046E16888477F1C0546022FE4
:1003500046F02006C4DBA069002803DA404246F0DC
:100360000106A061F00701D026F010066C2D0BD01D
:10037000682D09D04C2D39D06A2D35D0742D35D04B
:100380007A2D33D016E038E0E1682F4620468847C2
:10039000B842054609D16C2F26D04FF48060E16841
:1003A000064320468847054604E06C2F1AD04FF4D8
:1003B000807006430DB3A5F14100192802D82035FD
:1003C00046F400664A462946204626604E46FFF718
:1003D000C7FE80B101280BD0F61D26F0070000F102
:1003E000080956E74020E4E78020D8E70020D6E758
:1003F00006F104094DE7284652E7206ABDE8F09F60
:10040000822A00007047704770472DE9F0470D467B
:1004100099469246044600F124080168880604D5EE
:10042000E06921F01001216000E00120A84201DD17
:10043000471B00E00027A1697A1902EB0900081A9E
:10044000A0612078C00602D42046AFF300800026C9
:1004500008E0D4E901211AF806009047206A401C00
:10046000761C20624E45F4DB2078C0060AD5204673
:10047000AFF3008006E0D4E9012130209047206AE4
:10048000401C2062381EA7F10107F4DC07E0D4E924
:10049000012118F805009047206A401C2062281EA0
:1004A000A5F10105F3DC2046AFF3008020780006BB
:1004B00002D50220BDE8F0870120FBE701694A1C54
:1004C00002610878704700B58FB0CDE90131002195
:1004D000059105497944CDE9031011466846FFF7B7
:1004E000CDFE0FB000BD0000E5FFFFFF0A6802F877
:1004F000010B0A607047754600F02CF8AE46050007
:100500006946534620F00700854618B020B5FFF72E
:1005100051FEBDE820404FF000064FF000074FF0BD
:1005200000084FF0000B21F00701AC46ACE8C00911
:10053000ACE8C009ACE8C009ACE8C0098D4670471A
:1005400010B50446AFF300802046BDE81040FFF729
:100550001CBE0000004870477C01002001491820A3
:10056000ABBEFEE726000200704721B1826842F070
:100570000102826003E0826822F00102826070471B
:10058000014600208A6802F004020AB1012000E05E
:10059000002070470146C86C80B2704702460020B8
:1005A00013680B400BB1012000E0002070470146AA
:1005B00000208A6802F008020AB1012000E0002051
:1005C0007047000030B502460020002350680F4CF1
:1005D00020400D790C6844EA05242043506090685F
:1005E0000B4C2040D1E902542C434D7944EA450498
:1005F00020439060D06A20F470000C7C641EE4B24A
:10060000234340EA0350D06230BD0000FFFEF0FFFC
:10061000FDF7F1FFF0B504460D4600200021092D3D
:1006200011DDE068A5F10A0606EB4607072606FA83
:1006300007F18843A5F10A0606EB460603FA06F120
:100640000843E0600CE0206905EB4507072606FA41
:1006500007F1884305EB450603FA06F108432061DC
:10066000072A0FDA606B561E06EB86071F2606FA6E
:1006700007F18843561E06EB860605FA06F1084385
:10068000606322E00D2A0FDA206BD61F06EB860787
:100690001F2606FA07F18843D61F06EB860605FAE1
:1006A00006F10843206310E0E06AA2F10D0606EBB4
:1006B00086071F2606FA07F18843A2F10D0606EB0E
:1006C000860605FA06F10843E062F0BD816841F054
:1006D00008018160704721B1826842F4A002826003
:1006E00003E0826822F4A00282607047816841F0D2
:1006F000040181607047000010B504460523012203
:1007000021460948FFF786FF01210748FFF7E3FF6D
:1007100000BF02210448FFF741FF0028F9D002483A
:10072000FFF738FF10BD00000024014000B587B07E
:100730000121480200F082FC0121042000F07EFC2F
:100740004FF4004000F05EFC00208DF81B001C20E0
:10075000ADF8180003208DF81A0006A9164800F01D
:100760002BF90020019004904FF4602003900020AA
:100770008DF809008DF8080001208DF8140001A9FA
:100780000E48FFF71FFF01210C48FFF7EEFE0B4854
:10079000FFF79CFF00BF0948FFF709FF0128FAD0C7
:1007A0000648FFF7A3FF00BF0448FFF7E9FE012852
:1007B000FAD007B000BD000000080140002401404D
:1007C00000BFFEE770B505460E46002431462846B8
:1007D00000F026F804E0601CC4B2012000F0D7F855
:1007E0003146284600F073F9012801D1642CF2DB70
:1007F000642C01DB012070BD002404E0601CC4B245
:10080000012000F0C4F83146284600F060F908B92C
:10081000642CF3DB642C01DB0120ECE70020EAE729
:1008200038B505460C46ADF8004004208DF80300AD
:100830006946284600F0C0F838BD38B505460C4674
:10084000ADF8004010208DF8030003208DF8020061
:100850006946284600F0B0F838BD70B504460D462C
:1008600029462046FFF7E9FF2946204600F038F9DF
:10087000142000F080F82946204600F033F91E20AD
:1008800000F085F870BD70B505460E46002404E002
:10089000601CC4B2012000F07AF83146284600F00E
:1008A00016F9012801D1642CF2DB002404E0601C5D
:1008B000C4B2012000F06BF83146284600F007F979
:1008C00008B9642CF3DB282000F061F83146284693
:1008D00000F0FDF8012800D170BD0020FCE72DE9F3
:1008E000F04106460F460024002508E06006040E8D
:1008F00039463046FFF7C7FF0443681CC5B2082DD0
:10090000F4DB2046BDE8F0812DE9FC41074688462E
:1009100015461E4641463846FFF79FFF414638467A
:10092000FFF750FF08BB002407E041463846FFF7B9
:10093000D6FF0DF80400601CC4B2052CF5DB9DF851
:1009400000009DF8011008449DF8021008449DF82D
:10095000031008449DF80410884209D19DF8000056
:1009600030709DF80200287002E00120BDE8FC8193
:100970000020FBE7704700B5034603E04FF47A70B0
:1009800000F005F8181EA3F10103F7D100BDC10066
:100990004FF0E0225161002191610521116100BFFA
:1009A0004FF0E021096901F480310029F8D00421D9
:1009B0004FF0E022116170472DE9F0410246002519
:1009C0000026002000230024002791F803C00CF02B
:1009D0000F0591F803C00CF0100CBCF1000F03D010
:1009E00091F802C04CEA050591F800C0BCF1000F77
:1009F00031D0146800202BE04FF0010C0CFA00F30A
:100A0000B1F800C00CEA03069E4220D183004FF0EB
:100A10000F0C0CFA03F7BC4305FA03FC4CEA040480
:100A200091F803C0BCF1280F06D14FF0010C0CFA6D
:100A300000FCC2F814C00AE091F803C0BCF1480FF2
:100A400005D14FF0010C0CFA00FCC2F810C0401C9C
:100A50000828D1D31460B1F800C0BCF1FF0F34DD19
:100A6000546800202EE000F1080C4FF0010808FA4D
:100A70000CF3B1F800C00CEA03069E4221D18300BA
:100A80004FF00F0C0CFA03F7BC4305FA03FC4CEAD9
:100A9000040491F803C0BCF1280F05D100F1080C43
:100AA00008FA0CF8C2F8148091F803C0BCF1480FA2
:100AB00007D100F1080C4FF0010808FA0CF8C2F851
:100AC0001080401C0828CED35460BDE8F081024657
:100AD000002093680B400BB1012000E0002070471C
:100AE00041617047016170470AB1016100E04161F5
:100AF000704700BFFEE7000010B500241021144825
:100B0000FFF7E5FF38B900BF10211148FFF7DFFFFD
:100B10000028F9D0012420210D48FFF7D8FF38B96B
:100B200000BF20210A48FFF7D2FF0028F9D0022495
:100B300040210748FFF7CBFF38B900BF40210448E8
:100B4000FFF7C5FF0028F9D00324204610BD0000A0
:100B5000000C014008B50121082000F06FFA482080
:100B60008DF803007020ADF8000003208DF802001E
:100B700069460248FFF720FF08BD0000000C014055
:100B800010B5FFF7B9FF084908700846007801283A
:100B900009D106480078401CC0B2044908700228F8
:100BA00001D10020087010BD3A0000202200002072
:100BB00000BFFEE77047000070B5002100230F2240
:100BC000C47804B3154C246804F4E064C4F5E0640C
:100BD000210AC1F10403CA40447804FA03F184787D
:100BE0001440214309010E4C0678A155047804F005
:100BF0001F050124AC4005786D11AD0005F1E0251D
:100C0000C5F8004109E0047804F01F050124AC4058
:100C1000044D0678761145F8264070BD0CED00E0D5
:100C200000E400E080E100E002490143024A116073
:100C3000704700000000FA050CED00E070B50024DC
:100C40000EE00021204600F0E6F8002504E0002038
:100C500000F050F9681CC5B2802DF8DB601CC4B2EE
:100C6000082CEEDB70BD000008B50121082000F063
:100C7000E5F914208DF8030003208DF802004FF4ED
:100C80008070ADF8000069460A48FFF795FE4FF402
:100C90000070ADF8000069460648FFF78DFE01229E
:100CA00011020448FFF720FF012251020148FFF71B
:100CB0001BFF08BD000C014070B50546002415E07F
:100CC0008020204100EA05024FF400710E48FFF732
:100CD0000BFF012211020C48FFF706FF00224FF420
:100CE00080710948FFF700FF601CC4B2082CE7DBE5
:100CF000012211020448FFF7F7FE00224FF4807131
:100D00000148FFF7F1FE70BD000C014010B5012253
:100D100051020A48FFF7E8FE012211020748FFF7D7
:100D2000E3FE00224FF400710448FFF7DDFE0022CD
:100D30004FF480710148FFF7D7FE10BD000C014051
:100D400010B500224FF400710648FFF7CDFE0122D6
:100D500011020448FFF7C8FE012251020148FFF7C3
:100D6000C3FE10BD000C014070B5002406E0002554
:100D700000E06D1CB5F57A7FFBD3641CB4F57A7F77
:100D8000F5D3FFF771FFAE2000F0A4F8D52000F0F6
:100D9000A1F8802000F09EF8A82000F09BF83F20EA
:100DA00000F098F8D32000F095F8002000F092F8B9
:100DB000402000F08FF8A12000F08CF8C82000F04F
:100DC00089F8DA2000F086F8122000F083F88120FC
:100DD00000F080F8CF2000F07DF8D92000F07AF8FC
:100DE000F12000F077F8DB2000F074F8302000F0FC
:100DF00071F8A42000F06EF8A62000F06BF88D20AA
:100E000000F068F8142000F065F8AF2000F062F8F8
:100E1000FFF714FF70BD70B505460C4645F0B000F5
:100E200000F058F8102141EA141000F053F804F0D3
:100E30000F0000F04FF870BD2DE9F04105460E4659
:100E40001746721ED206110E6A1E5206100EFFF7CA
:100E5000E2FF002409E0A7F12001134A02EB01118F
:100E6000085D00F047F8601CC4B2082CF3DB721E6A
:100E7000D206110E6A1E012303EB4202D0B2FFF725
:100E8000CAFF00240BE0A7F12001074A02EB011280
:100E900004F10801505C00F02DF8601CC4B2082C6D
:100EA000F1DBBDE8F0810000222700082DE9F041C8
:100EB00007460E461546002407E02A5D3019C1B2E8
:100EC0003846FFF7B9FF601CC4B2285D0028F4D192
:100ED000BDE8F08110B50446FFF718FF7820FFF752
:100EE000EBFE0020FFF7E8FE2046FFF7E5FEFFF7E8
:100EF00027FF10BD10B50446FFF708FF7820FFF765
:100F0000DBFE4020FFF7D8FE2046FFF7D5FEFFF7B7
:100F100017FF10BD00B589B00121084600F07EF82A
:100F20000121042000F08AF818208DF82300032006
:100F3000ADF820008DF8220008A91D48FFF73CFD00
:100F40004FF0804000F01EFB0020ADF81A00ADF815
:100F5000160044F61F60ADF818004720ADF81400E5
:100F600000208DF81C0005A94FF0804000F0BEFB6A
:100F700001A800F0ABFB6020ADF804000020ADF844
:100F80000C000120ADF806000020ADF80A0001A910
:100F90004FF0804000F0FCFA01A94FF0804000F0D3
:100FA00043FB0121880700F0C7FA09B000BD00002B
:100FB0000008014010B5044604EBC40000EB041027
:100FC0004FF6FF7202EAC0014FF0804000F088FB4C
:100FD00010BD10B5044621464FF0804000F082FB62
:100FE00010BD10B5044604EBC40000EB04104FF62E
:100FF000FF7202EAC0014FF0804000F075FB10BDA7
:101000007047000001460020034A506820F4404029
:1010100008435060704700000010024029B1064AA2
:10102000D2690243044BDA6104E0034AD269824385
:10103000014BDA61704700000010024029B1064AF6
:1010400092690243044B9A6104E0034A9269824325
:10105000014B9A61704700000010024030B500213A
:101060000022002400232D4D6D6805F00C0121B1F4
:10107000042905D0082923D105E0294D056022E087
:10108000274D05601FE0254D6D6805F47012234D56
:101090006D6805F48034022505EB92421CB9214DA0
:1010A000554305600BE01D4D6D6805F400351DB11D
:1010B0001C4D5543056002E0194D5543056002E0A3
:1010C000174D056000BF00BF144D6D6805F0F001BD
:1010D0000909154D6B5C0568DD4045600F4D6D6875
:1010E00005F4E061090A104D6B5C4568DD408560E0
:1010F0000A4D6D6805F46051C90A0B4D6B5C45687B
:10110000DD40C560054D6D6805F44041890B074D14
:101110006B5CC568B5FBF3F5056130BD001002409E
:1011200000127A0000093D0000000020100000209D
:1011300001460020034A506820F003000843506035
:10114000704700000010024070470000014800781E
:10115000704700001400002005480078012804D1E1
:10116000002003490870012070470020FCE70000C0
:101170001500002000B587B001218803FFF75EFF4E
:1011800001210420FFF75AFF18208DF81B004FF4AF
:101190000070ADF8180003208DF81A0006A9214848
:1011A000FFF70AFC48208DF81B004FF48060ADF873
:1011B000180003208DF81A0006A91A48FFF7FCFB57
:1011C0004FF4E13002900020ADF814000C20ADF88F
:1011D00012000020ADF81000ADF80E00ADF80C00C4
:1011E00002A9114800F05EFD012240F225510E488F
:1011F00000F032FD4FF4A060FFF716FD25208DF8BA
:10120000040001208DF807008DF805008DF8060018
:1012100001A8FFF7D1FC0121034800F0DAFC07B078
:1012200000BD0000000801400038014010B5FFF784
:1012300093FF01281CD1FFF789FF0E49087008466B
:101240000078312808D10C480088401C0A490880E1
:101250000AA000F03BF80BE006480078322807D1DE
:1012600005480088401E044908800AA000F02EF8B6
:1012700010BD0000170000202C00002054656D7088
:10128000657261747572655F4D61782B3120210D37
:101290000A00000054656D70657261747572655F57
:1012A0004D61782D3120210D0A00000010B5044653
:1012B0002146054800F067FD00BF8021024800F08C
:1012C00094FC0028F9D010BD0038014070B50446E8
:1012D000002504E0605DFFF7E9FF681CC5B2605DB2
:1012E0000028F7D170BD00002DE9F04705460C46F7
:1012F000012C13D12049284600F0DCFF81461F490C
:1013000001F0CEF880461E4900F072FF074601F05A
:1013100093F886B23046FFF74DFE2AE0022C13D137
:101320001549284600F0C6FF8146144901F0B8F877
:101330008046134900F05CFF074601F07DF886B255
:101340003046FFF746FE14E0032C12D10A49284626
:1013500000F0B0FF8146094901F0A2F88046084933
:1013600000F046FF074601F067F886B23046FFF707
:1013700038FEBDE8F0870000000034430000FA4466
:101380000000FA4310B500F001F810BD0CB50020C4
:10139000019000903348006840F480303149086083
:1013A00000BF3048006800F4003000900198401CF5
:1013B0000190009818B90198B0F5A06FF1D12948B3
:1013C000006800F4003010B10120009001E000201E
:1013D00000900098012843D12348006840F0100095
:1013E000214908600846006820F0030008600846AC
:1013F000006840F0020008601A48406819494860D7
:101400000846406848600846406840F4806048608C
:101410000846406820F47C1048600846406840F464
:10142000E81048600846006840F08070086000BF1F
:101430000C48006800F000700028F9D009484068A6
:1014400020F00300074948600846406840F0020069
:10145000486000BF0348406800F00C000828F9D13C
:101460000CBD000000100240002002407047000048
:1014700010B51348006840F00100114908600846A3
:101480004068104908400E494860084600680E4907
:1014900008400B4908600846006820F48020086076
:1014A0000846406820F4FE0048604FF41F00886042
:1014B000FFF768FF4FF000600449086010BD0000AE
:1014C000001002400000FFF8FFFFF6FE08ED00E00C
:1014D00010B50121104800F03BF801281BD10F483E
:1014E0000088401C0D49088008460088642190FB54
:1014F000F1F201FB120050B90120094908700948B6
:101500000088401C074908800748FFF7DFFE0121DB
:10151000014800F00EF810BD000400401800002043
:101520003C0000201A00002080000020CA430282F4
:101530007047CA430282704721B1028842F001021B
:10154000028004E002884FF6FE731A400280704762
:1015500030B50246002000230024158A05EA010365
:10156000958905EA010413B10CB1012000E00020C7
:1015700030BD1AB183890B43838102E083898B4399
:101580008381704701894FF6F872114001817047DD
:1015900070B5002400220023058C4FF6FE763540FE
:1015A0000584028C8388048B4FF68F752C40B51E02
:1015B0002C400D882C43751E2A400D892A434D88E6
:1015C0002A43144DA8420BD0134DA84208D0134D06
:1015D000A84205D0124DA84202D0124DA84213D104
:1015E0004FF6F7752A404D892A434FF6FB752A407E
:1015F0008D882A434FF6FF652B404FF6FF552B4051
:101600008D892B43CD892B4383800483CD888586A8
:10161000028470BD002C01400034014000400140B4
:10162000004401400048014070B50024002200231E
:10163000058C4FF6EF7635400584028C8388048B49
:1016400048F6FF752C404FF6FF452C400D884FF6AD
:10165000FF7606EA05252C434FF6DF752A400D89F3
:1016600006EA05152A434D8806EA05152A43154D55
:10167000A84202D0144DA8421DD14FF67F752A40D2
:101680004D894FF6FF7606EA05152A434FF6BF75DA
:101690002A408D8806EA05152A434FF6FF352B4070
:1016A0004FF2FF752B408D8906EA85052B43CD89C6
:1016B00006EA85052B4383800483CD880587028451
:1016C00070BD0000002C0140003401400021018069
:1016D00041808180C180018141818181C1817047C8
:1016E0008186704701877047818770470022028892
:1016F0001D4B98420ED01D4B98420BD0B0F1804F3D
:1017000008D01B4B984205D01A4B984202D01A4B76
:10171000984204D14FF68F731A404B881A43174BE7
:10172000984207D0164B984204D04FF6FF431A4018
:10173000CB881A4302808B8883850B8803850A4BEC
:1017400098420BD0094B984208D00E4B984205D0D6
:101750000D4B984202D00D4B984201D10B7A038673
:101760000123838270470000002C014000340140B7
:101770000004004000080040000C00400010004041
:101780000014004000400140004401400048014076
:101790002DE9FE43A0480078012818D100209E4979
:1017A000087000219D48FFF7C7FE9D4B9D4A4FF4EE
:1017B00080419D48FFF7A8F89C4B9D4A4FF400419B
:1017C0009948FFF7A1F801219448FFF7B5FE0220E0
:1017D000FEF792FF804600F0A4FC0646954A964B21
:1017E00000F01AFB044600F06FFC944908800420C6
:1017F000FEF782FF804600F094FC06468D4A8E4B31
:1018000000F00AFB044600F05FFC8D4908808D481B
:10181000007800281ED1834802788BA18E48FEF7FD
:10182000DBFC8E4803888E4802888EA19148FEF723
:10183000D3FC914803887A48027890A19448FEF737
:10184000CBFC944803887D48028893A19748FEF713
:10185000C3FC1BE07B480078012817D1944803881B
:101860007248027893A17C48FEF7B6FC964803883C
:101870007348028895A17F48FEF7AEFC97A1844883
:10188000FEF7AAFC95A18948FEF7A6FC97480088B8
:10189000FFF790FB704A01210846FFF707FB754AE6
:1018A00001210220FFF702FB794A01210320FFF703
:1018B000FDFA7E4A01210420FFF7F8FA5F4800880C
:1018C0005F490988574A1278CDE9002102905448AF
:1018D00003785648027886498648FEF77DFC5148D1
:1018E00000785E49098888421DDB4E4800785C49D3
:1018F0000988884217DC4A4800785F49098888428D
:1019000011DB4E4800886349098888420BDB474851
:10191000007867490988884205DB494800886A4998
:101920000988884205DD4FF400417348FFF7DAF873
:1019300004E04FF400417048FFF7D2F839480078CE
:1019400046490988884205DA4FF400516A48FFF792
:10195000C9F804E04FF400516748FFF7C1F8314877
:1019600000783F490988884205DD4FF4805162487C
:10197000FFF7B8F804E04FF480515F48FFF7B0F884
:101980002A4800784A490988884204DA40215A489E
:10199000FFF7A8F803E040215748FFF7A1F82048D7
:1019A000007835490988884204DA80215248FFF7D7
:1019B00099F803E080215048FFF792F81F4800880B
:1019C00034490988884206DAB4204C4908706420FA
:1019D0004649088004E000204449088047490870CF
:1019E0001748008838490988884205DD4FF480414E
:1019F0004148FFF777F804E04FF480413E48FFF795
:101A00006FF83E48007800F037FD04460221FFF7EA
:101A10006BFCBDE8FE8300003C0000200004004099
:101A20001D0000201C000020000C01401F000020B1
:101A30001E0000207B14AE47E17A444026000020BF
:101A4000200000202200002054656D3A25644320C8
:101A50002020202020200000400000202A0000201C
:101A60002C0000204D61783A2564204D696E3A259E
:101A70006420000050000020320000204D6F693AC1
:101A800025642525204D696E3A256420000000005C
:101A9000600000202E0000204C69673A256425254F
:101AA000204D696E3A25642000000000700000207F
:101AB00036000020532D4D3A25642525204D696EB2
:101AC0003A2564200000000038000020434F323ADD
:101AD0002564204D61783A256420000020202020D4
:101AE0002020202020202020202000002400002072
:101AF000242D000880000020000801403B00002049
:101B00001FB501210220FFF789FA1B48FFF73AFDB4
:101B10000020ADF80A00ADF8060040F2E730ADF85D
:101B200008005920ADF8040000208DF80C0001A930
:101B30001148FFF7DBFD01210F48FFF7F7FC0122F9
:101B400011460D48FFF715FD4FF4A060FFF76CF844
:101B50001D208DF8000001208DF8030002208DF873
:101B6000010001208DF802006846FFF725F80121E9
:101B70000148FFF7E1FC1FBD0004004010B540F232
:101B80002551094800F03EF801280CD1064800F024
:101B9000F5F80649087001200549087040F2255102
:101BA000014800F007F810BD003801401400002083
:101BB0001500002010B50022002340F66A14A1424F
:101BC00000D100BF0A1201249440A3B2DC43048078
:101BD00010BD21B1828942F40052828104E08289E1
:101BE0004DF6FF731A408281704702460020B1F51E
:101BF000007F00D100BF13880B400BB1012000E033
:101C00000020704770B50246002400230025002004
:101C100040F66A16B14200D100BFC1F3421501F08F
:101C20001F03012606FA03F3012D02D196893340E2
:101C300006E0022D02D1168A334001E0968A334035
:101C40000C12012606FA04F41688344013B10CB1C4
:101C5000012000E0002070BDF0B5034600240026FE
:101C60000025002040F66A17B94200D100BF18468F
:101C7000C1F3421401F01F06012707FA06F5012CF3
:101C800001D10C3004E0022C01D1103000E01430FE
:101C90001AB107682F43076002E00768AF43076087
:101CA000F0BD00002DE9F04786B005460E46002441
:101CB000A24600BFA1460027B08900B100BF2F4651
:101CC0002C8A4CF6FF700440F08804432C82AC89C7
:101CD0004EF6F3100440B0883189084371890843F7
:101CE0000443AC81AC8A4FF6FF400440B089044302
:101CF000AC8201A8FFF7B2F91F48874202D1DDF894
:101D000010A001E0DDF80CA0A88900F4004040B16B
:101D10000AEBCA0000EB0A1031684900B0FBF1F889
:101D200007E00AEBCA0000EB0A1031688900B0FB3B
:101D3000F1F86420B8FBF0F004012009642101FBF4
:101D40001089A88900F4004040B1322000EBC9009E
:101D5000B0FBF1F000F00700044308E0322000EB94
:101D600009106421B0FBF1F000F00F0004432C8156
:101D700006B0BDE8F08700000038014001468888C1
:101D8000C0F308007047C1F308028280704700BFAB
:101D9000FEE730380A2801D2012070470020704742
:101DA00008B50020FFF7C4F9FEF7D4FEFFF7E2F90B
:101DB000FFF7A6FEFEF7BAFCFEF7D6FFFFF7AAF87C
:101DC00001210C20FFF73AF910208DF803000420C0
:101DD000ADF8000003208DF8020069460C48FEF7BC
:101DE000EBFD10208DF803004FF2C000ADF80000AD
:101DF00003208DF8020069460648FEF7DDFD05E088
:101E0000FEF7BEFEFFF7C4FCFFF710FAF8E700008C
:101E1000000C0140000801402DE9C04130B4DFF85A
:101E2000A0C23CEA111418BF3CEA131400F0EC8085
:101E300081EA03051CEA111444EAD57418BF1CEAB0
:101E4000131500F0C780A4EB05044FF0004545EAE8
:101E5000C12145EAC32341EA505143EA525304F1F8
:101E60007F74994204F500344FEAC0204FEAC22241
:101E700008BF904200F09C804FEA13650FF24016B5
:101E8000765D4FEA134506FB05F7C7F1807706FB41
:101E900007F74FEAD737A7FB03687642C8F58038C3
:101EA000A7FB06CE38BFA8F1010807FB08E64FF0F4
:101EB000000EA6FB028CE6FB03CEDCF1000CCEF19B
:101EC000004E38BFAEF1010EA6FB0C584FF00007D4
:101ED0004FF00005E6FB0E87A1FB08C6A0FB07CE6E
:101EE00016EB0E0645F10005E1FB076515F1E04E26
:101EF0007EBFA4F580345FEA46066D4116F1800787
:101F000045F100054FEA17274FEA066647EA0567DD
:101F1000A6F1DE46B6F1805F4FEA15251FD9384697
:101F200024F0010C05EBC471BCF1FE6F01EB0C1148
:101F300002D8F0BCBDE8008124425CBF01F5801EE0
:101F40009EEAC47F02D4F0BCBDE80081244238D4AC
:101F5000F0BCA1F1C041BDE8004100F043B94FEA37
:101F6000D22242EA43524FEAD323A7FB02864FEA2A
:101F7000D02040EA415007FB03661EEA0E0F4FEAED
:101F8000D12105FB026658BFA6EB0056B6EB005602
:101F90004FEA520E4EEAC37E18EB0E0E56EB530E6E
:101FA000BDD518EB02085E417F1C55F10005B6E770
:101FB0004FF480154FF000074FF000064FF0000877
:101FC000ADE7F0BC4FF0000001F1C04101F000416D
:101FD000BDE8008111EA0C1F0CEA131500D00CE0DB
:101FE00013EA0C1F00F025804FF00000F0BC81EADE
:101FF000030101F00041BDE80081F0BCBDE80041F3
:1020000081EA030100F0EEB8F0BCBDE8004170B514
:1020100000F09AF8097EFC3E00F007B881EA03015F
:102020004FF0000001F00041704781EA030100F029
:10203000D9B8F0BCBDE800414FF00000214970471D
:10204000FFFDFBF9F7F5F4F2F0EEEDEBE9E8E6E47D
:10205000E3E1E0DEDDDBDAD8D7D5D4D3D1D0CFCD04
:10206000CCCBCAC8C7C6C5C4C2C1C0BFBEBDBCBB3D
:10207000BAB9B8B7B6B5B4B3B2B1B0AFAEADACAB38
:10208000AAA9A8A8A7A6A5A4A3A3A2A1A09F9F9E12
:102090009D9C9C9B9A9999989797969595949393C4
:1020A000929191908F8F8E8E8D8C8C8B8B8A89895B
:1020B00088888787868585848483838282818180DE
:1020C0000000FF070000F87F4FEA1153A3F580637B
:1020D000D3F11E03A8BFD3F1200C08DB4FF0004260
:1020E00042EAC12252EA505232FA03F070470942E2
:1020F0000BD4102BC4BF0020704703F5787CBCF1D3
:10210000FF3F05D04FF0FF3070474FF000007047A1
:1021100070B500F019F800BF499224800020704784
:10212000F0E7B0FA80F310FA03F10AD0C3F11D030F
:1021300003F580634FEA41504FEA035202EBD1218D
:1021400070474FF0000070470EF1020E2EF0030EA4
:102150005EF8046B364205D4012A43EB030515F5FE
:10216000001F12D8012841EB010C1CF5001F0CD8F0
:102170000ED14FEAD17C15F5001F0CEB4C0C0CF185
:10218000020C08BF4CEBD37C04E04FF0080C01E0DC
:102190004FEAD37C0CEB4C0526FA05F606F0070651
:1021A000B6F1040C06D20EEB860CBDE870404CF084
:1021B000010C6047DFE80CF0090B02024FF0004110
:1021C0004FF00000A1F5002170BD1946104601280E
:1021D00051EB010418BFD4F5001484BF002001F0B6
:1021E000004170BD0808A0F500114FEA31017047A9
:1021F00090EA010F48BF81F0004100F12482421AA9
:102200003CBF801A89184FEAD0524FF07F4C1CEA2D
:10221000410FA2EBD15318BF9CEA026F00F03B8044
:102220004FF0004C4CEA00204CEA012121FA03FC5B
:1022300010EB0C0C1ED202F1FF325FEA1C2040EBC7
:10224000C25038BF70471CF07F0F4FEA400C18BFD8
:10225000BCF17F4F38BF7047C3F12003994008BFDE
:1022600020F00100BCF17F4F38BF7047A0F1C040A3
:1022700000F0DDB94FEA3C00000A40EBC25028BF35
:102280001CF0FF0F4FEA400CE6D018BFBCF17F4FA7
:1022900038BF7047EAE79CEA026F05D010EA5C0F8E
:1022A00008BF00F00040704710B500F07AF900BF99
:1022B00064FBBE3E4FF47F0C1CEAD0121EBF1CEA2A
:1022C000D11392EA0C0F93EA0C0F00F0858090EA8C
:1022D000010F48BF42F4807240F4000C41F400004A
:1022E0002CF07F4120F07F4000B58142A2EB030239
:1022F0000FF2081CACEB504EC0F100009EF800E05D
:102300004FEA4E0E00FB0EFC38BF49004FEA2C1C72
:1023100002F5FA020CFB0EF34FEACE1E4FEA112C27
:102320004FEAC1210EEB635E42EB22420EFB0CFC36
:102330004FEA1C5300FB03114FEA112C4FEA013105
:102340000EFB0CFC4FEADC4C00FB0C11C14228BF19
:1023500009184CEB03335DF804EB10EB410143EB40
:10236000C250B2F57C0F38BF704729D512F0F00F7C
:102370001CBF00F1C04000F0004070470081828324
:102380008485868788898B8C8D8E8F919293959684
:1023900097999A9C9D9FA0A2A3A5A7A8AAACAEB00E
:1023A000B2B3B5B7B9BCBEC0C2C5C7C9CCCED1D413
:1023B000D7D9DCDFE2E6E9ECF0F3F7FAFE00000043
:1023C0004FEA400C0CF1807CBCF17E4F28BF704777
:1023D000B0F1C04000F02BB990EA010F0CEAD11324
:1023E00048BF42F48072624538BF634507D213F498
:1023F0007F0F16D080EA010000F00040704710B552
:1024000000F0CFF8097EFC3E00F005B880EA01003C
:1024100000F00040704780EA010000F0004000F04A
:1024200006B912F47F0F04BF0248704780EA01002A
:1024300000F0FDB80000C07FC10DD1F19E0206DBA7
:102440004FEA002343F0004323FA02F070470042B2
:1024500007D54FEA4001B1F1FE4F02D24FF0000024
:10246000704710B500F09DF8499224800020704715
:102470006FEA200070470000B0FA80F310FA03F210
:10248000C3F19D030AD0D90501EB1220530638BFD2
:10249000704700F1010008BF20F001007047000004
:1024A0004FF47F0C1CEAD0121EBF1CEAD11392EA33
:1024B0000C0F93EA0C0F00F0478090EA010F48BF21
:1024C00042F480724FF0004C4CEA00204CEA0121AB
:1024D00002EB0302A0FB0113A2F50002002918BFC2
:1024E00043F001035B0028BF4FEA330342EB224273
:1024F0005FEA132C4CEBC2502EBFBCEB436FB2F51E
:102500007C0F70474FEA036CBCF1004F08BF20F00E
:102510000100B2F57C0F38BF70470BD582F0FF0287
:1025200012F5803FC8BF704700F1C040D8BF00F02F
:102530000040704700F5000C5FEA4C0C48BF704744
:10254000B0F1C04000F073B890EA010F0CEAD1136B
:1025500048BF42F48072624538BF634504D280EAC6
:10256000010000F00040704710B500F01AF800BFFD
:102570008900013E00F007B800F009B85FEA410C9D
:102580005FEA1C6C08D080EA010000F050B85FEAF6
:10259000400C5FEA1C6CF6D14FF00040A0F58000C3
:1025A00070470EF1020E2EF0030E5EF8044B24422B
:1025B00004D44FEA4102B2F17F4F11D84FEA4003F1
:1025C000B3F17F4F0CD80ED14FEAD07CB2F17F4FE0
:1025D0000CEB4C0C0CF1020C08BF4CEBD17C04E072
:1025E0004FF0080C01E04FEAD17C0CEB4C0324FACD
:1025F00003F404F00704B4F1040C06D20EEB840CCF
:10260000BDE810404CF0010C6047DFE80CF0070813
:1026100002024FF00040A0F5800010BD08464200C5
:1026200018BFD2F1807288BF00F0004010BDFF21BA
:1026300041EAD050C005704790EA010F48BF81F0D1
:1026400000413FF5DCAD421A04D882F00042A0EB15
:10265000020011444FEAD0524FF07F4C1CEA410F68
:10266000A2EBD15318BF9CEA026F4AD04FF0004C46
:102670004CEA00204CEA012121FA03FCB0EB0C0CDF
:102680000FD412F0FE0F36D05FEA4C001DD50012B9
:1026900040EBC25038BF70471CF03F0F18BF704767
:1026A0000BE0A2F101025FEA1C2040EBC25038BFF0
:1026B00070471CF07F0F18BF7047C3F1200399408B
:1026C00014BF401E20F00100704780084FEA12231B
:1026D00008BF7047B0FA80FCA2EB0C02CCF1280CCA
:1026E00060FA0CF093EA122F04BF00EBC25070475F
:1026F0004FEAC3707047130A5FEADC1008BF7047E7
:10270000F6E79CEA026F04D010EA5C0F08BF0020D5
:10271000704710B5FFF745FF40DFF63E81F00040FF
:1027200070470000000000000000000000000000F2
:102730000000000000F8000000000000003330003E
:10274000000000100C06100C060000000000000045
:10275000000040C07840C0784000043F04043F04BB
:102760000400007088FC08300000001820FF211EC3
:102770000000F008F000E018000000211C031E21FA
:102780001E0000F00888700000001E212324192775
:10279000211010160E0000000000000000000000D4
:1027A0000000000000E018040200000000071820EC
:1027B000400000020418E00000000040201807005C
:1027C0000000404080F0804040000202010F010202
:1027D0000200000000F0000000000101011F0101E3
:1027E0000100000000000000000080B07000000048
:1027F00000000000000000000000000101010101D4
:102800000101000000000000000000303000000066
:10281000000000000000806018040060180601003D
:10282000000000E010080810E000000F1020201049
:102830000F00001010F8000000000020203F2020B2
:102840000000007008080888700000302824222149
:1028500030000030088888483000001820202011FF
:102860000E000000C02010F8000000070424243FE0
:10287000240000F808888808080000192120201189
:102880000E0000E0108888180000000F11202011B1
:102890000E0000380808C83808000000003F00009B
:1028A00000000070880808887000001C2221212286
:1028B0001C0000E010080810E00000003122221186
:1028C0000F00000000C0C000000000000030300019
:1028D0000000000000800000000000008060000098
:1028E00000000000804020100800000102040810D1
:1028F00020004040404040404000040404040404E0
:10290000040000081020408000000020100804028D
:102910000100007048080808F0000000003036018F
:102920000000C030C828E810E0000718272423144E
:102930000B000000C038E0000000203C230202270A
:10294000382008F8888888700000203F2020201157
:102950000E00C03008080808380007182020201092
:10296000080008F808080810E000203F2020201088
:102970000F0008F88888E8081000203F2020232056
:10298000180008F88888E8081000203F200003009D
:102990000000C03008080838000007182020221E58
:1029A000020008F808000008F808203F2101012172
:1029B0003F20000808F8080800000020203F2020E1
:1029C000000000000808F8080800C08080807F0030
:1029D000000008F888C028180800203F2001263889
:1029E000200008F8080000000000203F20202020E0
:1029F000300008F8F800F8F80800203F003F003FDA
:102A0000200008F830C00008F808203F2000071810
:102A10003F00E01008080810E0000F1020202010F0
:102A20000F0008F808080808F000203F2101010104
:102A30000000E01008080810E0000F1824243850A7
:102A40004F0008F8888888887000203F2000030C19
:102A50003020007088080808380000382021212222
:102A60001C00180808F8080818000000203F200083
:102A7000000008F808000008F808001F20202020A7
:102A80001F000878880000C83808000007380E01C9
:102A90000000F80800F80008F800033C0700073CB5
:102AA0000300081868808068180820302C03032C65
:102AB00030200838C800C83808000000203F200037
:102AC000000010080808C8380800203826212020F7
:102AD0001800000000FE020202000000007F4040DB
:102AE0004000000C30C0000000000000000106386B
:102AF000C00000020202FE000000004040407F00D3
:102B000000000000040202020400000000000000B7
:102B100000000000000000000000808080808080B5
:102B2000808000020204000000000000000000009D
:102B300000000000808080800000001924222222F2
:102B40003F2008F8008080000000003F1120201185
:102B50000E000000008080800000000E1120202068
:102B60001100000000808088F800000E1120201065
:102B70003F200000808080800000001F222222224F
:102B80001300008080F0888888180020203F2020D3
:102B900000000000808080808000006B94949493FB
:102BA000600008F8008080800000203F21000020A5
:102BB0003F2000809898000000000020203F202047
:102BC0000000000000809898000000C08080807F96
:102BD000000008F8000080808000203F24022D3093
:102BE0002000000808F8000000000020203F2020FE
:102BF00000008080808080808000203F20003F2077
:102C0000003F8080008080800000203F2100002065
:102C10003F200000808080800000001F20202020B6
:102C20001F00808000808000000080FFA120201114
:102C30000E000000008080808000000E112020A087
:102C4000FF80808080008080800020203F21200045
:102C50000100000080808080800000332424242430
:102C60001900008080E0808000000000001F20200C
:102C700000008080000000808000001F20202010C5
:102C80003F20808080000080808000010E30080698
:102C9000010080800080008080800F300C030C30A9
:102CA0000F0000808000808080000020312E0E31D7
:102CB0002000808080000080808080818E701806D7
:102CC000010000808080808080000021302C222143
:102CD000300000000000807C020200000000003F85
:102CE000404000000000FF00000000000000FF0066
:102CF00000000002027C800000000040403F000015
:102D000000000006010102020404000000000000AF
:102D100000000400000800000000000000020001A4
:102D2000000010007B22536F696C4D6F69737475DE
:102D30007265223A25752C2243757272656E74484D
:102D4000756D6964697479223A25752C2243757210
:102D500072656E7454656D7065726174757265220A
:102D60003A25752C22636F32223A25752C224C6944
:102D70006768744C7578223A25757D0D0A0000004D
:102D8000A02D0008000000204000000028010008DD
:102D9000E02D000840000020A007000044010008CA
:102DA00000000000010203040102030406070809F1
:102DB00002040608000000000000000000000000FF
:102DC0000000000032000000000014002800140081
:102DD00050001E0050001E00500000640000000063
:04000005080000ED02
:00000001FF
